:020000040800F2
:10000000B80E0020010100086D0600086F06000808
:1000100073060008770600087B0600080000000051
:100020000000000000000000000000007F06000843
:10003000810600080000000083060008850600080D
:100040001B0100081B0100081B0100081B01000820
:100050001B0100081B0100081B0100081B01000810
:100060001B0100081B0100081B0100081B01000800
:100070001B0100081B0100081B0100081B010008F0
:100080001B0100081B0100081B0100081B010008E0
:100090001B0100081B0100081B0100081B010008D0
:1000A0001B0100081B0100081B0100081B010008C0
:1000B000CD0600081B0100081B0100081B010008F9
:1000C0001B0100081B0100081B0100081B010008A0
:1000D0001B010008970600081B0100081B0100080F
:1000E0001B0100081B0100081B010008DFF80CD0F1
:1000F00006F078FB00480047EF020008B80E002029
:100100000648804706480047FEE7FEE7FEE7FEE7B1
:10011000FEE7FEE7FEE7FEE7FEE7FEE7FB3100084D
:10012000ED00000870B504460D4601F086F8204643
:1001300001F0C8F82946204601F094F901F089F849
:1001400070BD01460888704710B505F03AFC0128DB
:100150007ED1FE48007801280DD1FC484078022865
:1001600009D1FA488078552805D1052003F0FCF81C
:100170000120F7490870F548007801280DD1F348AF
:100180004078032809D1F1488078552805D1052009
:1001900003F0EAF80020EE490870EC4800780128E6
:1001A0000CD1EA484078042808D1E84880785528DE
:1001B00004D1052003F0D8F804F0D7FCE348007818
:1001C00001280CD1E1484078052808D1DF48807823
:1001D000552804D1052003F0C7F804F0D6FCDB480D
:1001E000007801280CD1D9484078062808D1D74892
:1001F0008078552804D1052003F0B6F804F095FC6A
:10020000D248007801280CD1D0484078072808D17E
:10021000CE488078552804D1052003F0A5F804F0D5
:1002200094FCCA480078012816D1C84840781228A2
:1002300012D1C648807855280ED1052003F094F8D5
:10024000C2480079C14AD27800EB0221C14800E0DF
:1002500049E00068FFF766FFBC480078012814D128
:10026000BA484078132810D1B848807855280CD166
:10027000052003F079F8B5480079B44AD27800EB4C
:100280000221B5480068FFF74DFFB048007801280B
:1002900029D1AE484078142825D1AC48807855281B
:1002A00021D1052003F060F8AA480068FFF749FF54
:1002B000000AAA498870A7480068FFF742FFA749CB
:1002C000C870A5480068FFF73CFF000AA349087101
:1002D000A1480068FFF735FFA0494871002232218C
:1002E0009E4805F0B1FA002005F068FB10BD08B586
:1002F00003F06AF84FF4A06000F01AFA4FF47A7035
:1003000003F097F84FF4E13003F0E0FA05F05CFBFE
:1003100002F0F4FF05F0A6F904F05EFF00200423CC
:1003200008220721009005F087FD03F0BAFB0122A7
:10033000D1038B4801F051FB41F61F41632005F0CA
:10034000CFF988A003F0ADFA4FF47A7003F071F89A
:1003500091A003F0A6FA40F2E241062005F020FA4F
:1003600078E105F02FFA012002F0FEFF8D4805F03C
:10037000FEFD8D4908700846007888B100208B4941
:10038000087007E0012002F0EFFF88480078401C69
:100390008649087085480078834909788842F1DBEE
:1003A000FFF7D2FE322004F0AAF904F060FD804885
:1003B000006841F2680188421FDC7D48406888423D
:1003C0001BDC7B480069884217DC79484069884219
:1003D00013DC7748806988420FDC7548406A8842A0
:1003E0000BDC7348806A884207DC7148C06A884227
:1003F00003DC6F48806B884208DD04F0A6FBFF2118
:10040000002005F08EF801206A49087069480078DC
:1004100001282ED16648006841F20401884228DA9A
:1004200063484068884224DA61480069884220DADB
:100430005F48406988421CDA5D488069884218DA62
:100440005B48406A884214DA5948806A884210DA68
:100450005748C06A88420CDA5548806B884208DAEF
:1004600004F063FBFF21002005F05BF800205149F8
:1004700008704F480068B0F52F6F27DB4C48406884
:10048000B0F52F6F22DB4A480069B0F52F6F1DDBF6
:1004900047484069B0F52F6F18DB45488069B0F5D3
:1004A0002F6F13DB4248406AB0F52F6F0EDB4048D8
:1004B000806AB0F52F6F09DB3D48C06AB0F52F6F39
:1004C00004DB3B48806BB0F52F6F08DA04F05DFB6E
:1004D000FF21002005F025F8012037490870364833
:1004E000007801286FD132480068B0F52F6F6ADDBF
:1004F0002F484068B0F52F6F65DD2D480069B0F5D5
:100500002F6F60DD2A484069B0F52F6F5BDD28480A
:100510008069B0F52F6F56DD2548406AB0F52F6F22
:1005200051DD2348806AB0F52F6F4CDD2048C06A4A
:10053000B0F52F6F47DD1E48806BB0F52F6F42DDA1
:1005400004F013FBFF21002038E03CE09C05002074
:10055000FC01002000000020040000200800002012
:10056000000C01404D4F44455F4346472831293B2D
:100570004449522831293B4653494D4728323039A6
:10058000373135322C302C302C3232302C3137365A
:100590002C30293B0D0A0000434C52283631293BB0
:1005A0000D0A0000FF010020FD010020FE010020D7
:1005B000EC0900200A0200200B02002004F0B1FF29
:1005C0000020254908702548406C41F28831884256
:1005D00008DD04F0F0FAFF21002004F0A2FF012062
:1005E0001F4908701E48007801280DD11B48406C37
:1005F000B0F5FA6F08DA04F0D8FAFF21002004F011
:1006000090FF00201649087016480068FFF799FD12
:100610001249896C884208D204F0CDFAFF210020EB
:1006200004F07FFF0120104908700F48007801286E
:1006300010D10C480068FFF784FD0849896C884296
:1006400008D904F0B2FAFF21002004F06AFF00206C
:100650000549087085E600000B020020EC09002027
:100660000C0200200400002009020020704700BF97
:10067000FEE700BFFEE700BFFEE700BFFEE77047F2
:10068000704770472548008820B124480088401EE4
:1006900022490880704710B54FF4806440F225511C
:1006A0001F4802F0F7FC80B11E480088B0F5806F4B
:1006B0000BDA1B48001D0088C1B21A480288008866
:1006C000401C184B18801848815410BD10B50121EA
:1006D000880702F00AFBF8B10121880702F016FB37
:1006E00010480088002803DD05F06BF9012800D1CF
:1006F00010BD0C4800880D490988884208D10120A6
:1007000005F05CF90020074908800849088003E0EB
:10071000044800880549088000BFE9E7140200206A
:1007200000380140180200209C0500201A02002019
:1007300031490143314A1160704770B500210023EF
:100740000F22C47804B32D4C246804F4E064C4F58B
:10075000E064210AC1F10403CA40447804FA03F1B9
:100760008478144021430901254C0678A15504786A
:1007700004F01F050124AC4005786D11AD0005F1B2
:10078000E025C5F8004109E0047804F01F050124C4
:10079000AC401C4D0678761145F8264070BD1A4ACB
:1007A0000A400243154B1B1F1A60704739B1134AA8
:1007B000121D12680243114B1B1D1A6006E00F4AFE
:1007C000121D126882430D4B1B1D1A6070470428CE
:1007D00008D14FF0E021096941F004014FF0E02217
:1007E000116107E04FF0E021096921F004014FF0A9
:1007F000E0221161704700000000FA050CED00E0F6
:1008000000E400E080E100E080FFFF1F10B5044637
:10081000FE48844209D10121480601F030FB002145
:100820004FF0007001F02BFB08E00121880601F079
:1008300026FB00214FF0806001F021FB10BD30B598
:10084000024600200023146824F002041460146897
:1008500044F00104146000E05B1C546804F00104DF
:100860001CB94FF6FF74A342F6D1546804F001049A
:100870000CB900206CE08C79012C04D1146844F090
:100880008004146003E0146824F080041460CC79C0
:10089000012C04D1146844F04004146003E014688F
:1008A00024F0400414600C7A012C04D1146844F044
:1008B0002004146003E0146824F0200414604C7ACF
:1008C000012C04D1146844F01004146003E014688F
:1008D00024F0100414608C7A012C04D1146844F0C4
:1008E0000804146003E0146824F008041460CC7A4F
:1008F000012C04D1146844F00404146003E014686B
:1009000024F0040414608C78A407CD7844EA0564CC
:100910000D7944EA05444D7944EA05540D886D1E6D
:100920002C43D461146824F001041460002300E017
:100930005B1C546804F001041CB14FF6FF74A34221
:10094000F6D1546804F001040CB1002000E001204D
:1009500030BD10B50021837A012202FA03F1AC4ABE
:10096000126842F00102AA4B1A60A94A1C321268AE
:100970008A43A74B1C331A60027BCAB9A44A0C32C3
:1009800012688A43A24B0C331A604288C38842EA39
:1009900003439F4A4032847A42F834300288838885
:1009A00042EA03439A4A4032847A02EBC40253601B
:1009B000027B012A19D1964A0C3212680A43944BE1
:1009C0000C331A604288038842EA0343904A40325B
:1009D000847A42F83430C288838842EA03438C4ADE
:1009E0004032847A02EBC4025360C27A3AB9884A30
:1009F000121D12688A43864B1B1D1A6006E0844A4A
:100A0000121D12680A43824B1B1D1A60028932B9FB
:100A10007F4A143212688A437D4B14331A6002896C
:100A2000012A06D17A4A143212680A43784B1433E9
:100A30001A60427B012A06D1754A1C3212680A43A9
:100A4000734B1C331A60724A126822F00102704B19
:100A50001A6010BD00218171C171017241728172F1
:100A6000C1728170C17003210171022141710121A4
:100A7000018070476649096841F00101644A1160CC
:100A80001146096843F60E729143614A116011469E
:100A9000096841EA002111601146096821F001014D
:100AA0001160704721B1026842F48032026003E0B5
:100AB000026822F4803202607047E1B1026842F0BD
:100AC000800202604FF4C272125842F480734FF4F5
:100AD000C27213504FF4CA72125842F480734FF42A
:100AE000CA7213504FF4D272125842F480734FF40A
:100AF000D27213501BE0026822F0800202604FF4B1
:100B0000C272125822F480734FF4C27213504FF421
:100B1000CA72125822F480734FF4CA7213504FF401
:100B2000D272125822F480734FF4D272135070476D
:100B300010B502460020936803F08063B3F1806F24
:100B400000D110E0936803F00063B3F1006F01D1AE
:100B5000012008E0936803F08053B3F1805F01D176
:100B6000022000E00420042879D002F5C07303EBD2
:100B700000131B6803F0010402F5C07303EB0013BC
:100B80001C600B7A7BB94B7A0C8843EA445302F51C
:100B9000C07404EB00142468234302F5C07404EB12
:100BA0000014236010E00B7A4C6843EAC4034C7ACB
:100BB000234302F5C07404EB00142468234302F5B8
:100BC000C07404EB001423608B7A03F00F038B7264
:100BD00002F5C07303EB00135B6823F00F0402F50A
:100BE000C07303EB00135C6002F5C07303EB0013EA
:100BF0005B688C7A234302F5C07404EB00146360D5
:100C00008B7B1C064B7B44EA034403E000640040FA
:100C1000006600400B7B44EA0323CC7A234302F5B1
:100C2000C07404EB0014A3608B7C1C064B7C44EA6C
:100C300003440B7C44EA0323CC7B234302F5C074BA
:100C400004EB0014E36002F5C07303EB00131B68B0
:100C500043F0010402F5C07303EB00131C6010BDE8
:100C600010B50246002321B1012907D002290FD176
:100C700009E09068F94C00EA04030BE09068F84C36
:100C800000EA040306E09068F64C00EA040301E081
:100C9000002300BF00BFF44C181BA34216D007DC92
:100CA00083B16FF08060184470B1022818D111E050
:100CB000B0F5007F10D0ED4C204448B1B0F5003FB6
:100CC0000ED10BE002230DE000230BE0002309E02E
:100CD000002307E0012305E0012303E0012301E0F5
:100CE000002300BF00BFD8B210BD21B1012907D039
:100CF00002290FD109E0826842F0800282600AE096
:100D0000826842F40042826005E0826842F4000298
:100D1000826000E000BF00BF704710B500F5D873D7
:100D200003EB01131B6803F004031372137A53B926
:100D300000F5D87303EB01131B6840F2FF7404EA5B
:100D40005353136009E000F5D87303EB01131B68DC
:100D50006FF0604404EAD303536000F5D87303EBEB
:100D600001131B6803F00203537200F5D87303EB01
:100D700001135B6803F00F03937200F5D87303EB64
:100D800001135B681B0AD37400F5D87303EB0113DE
:100D90009B68D37200F5D87303EB01139B681C0AA0
:100DA000147300F5D87303EB01139B681C0C547388
:100DB00000F5D87303EB01139B681B0E937300F5CA
:100DC000D87303EB0113DB68D37300F5D87303EB1F
:100DD0000113DB681C0A147400F5D87303EB0113CC
:100DE000DB681C0C547400F5D87303EB0113DB684B
:100DF0001B0E937421B9C36843F02003C36003E062
:100E0000036943F02003036110BD21B9C26842F0B9
:100E10002002C26003E0026942F0200202617047D2
:100E20000246002019B9D36803F0030006E0012947
:100E300003D1136903F0030000E00020704710B5F0
:100E400002460B4600204FF6FF71BBB9146824F030
:100E5000020444F00104146000E0491E546804F0E8
:100E60000304012C01D00029F7D1546804F00304D5
:100E7000012C01D0002032E0012030E0012B13D101
:100E8000146824F00304146000E0491E546804F060
:100E900003040CB10029F8D1546804F003040CB128
:100EA00000201CE001201AE0022B17D1146824F066
:100EB000010444F00204146000E0491E546804F088
:100EC0000304022C01D00029F7D1546804F0030474
:100ED000022C01D0002002E0012000E0002010BD23
:100EE000014600200A6822F0010242F002020A6074
:100EF0004A6802F00302022A00D10120704701462D
:100F00004FF6FF7200200B6823F002030B6000E035
:100F1000521E4B6803F00203022B01D1002AF7D1C5
:100F20004B6803F00203022B00D0012070470146FA
:100F300000208A6902F070007047014600208A692B
:100F4000100E7047014600208A69C2F307407047BF
:100F50001AB143690B43436102E043698B43436128
:100F6000704710B50246002001F4700343B1936945
:100F7000C1F3130423400BB101202DE000202BE02E
:100F800001F0807343B15368C1F3130423400BB1E4
:100F9000012021E000201FE001F0006343B19368CD
:100FA000C1F3130423400BB1012015E0002013E02E
:100FB00001F0007343B1D368C1F3130423400BB1B4
:100FC000012009E0002007E01369C1F31304234066
:100FD0000BB1012000E0002010BD0022244B9942FB
:100FE00002D10023836111E0C1F3130201F0007309
:100FF0000BB1C2600AE001F080630BB1026105E051
:1010000001F000630BB1826000E04260704702466D
:10101000002002EA01030BB1012000E0002070472C
:1010200070B504460D46002660692840002872D03D
:10103000B5F5807F69D01DDC082D42D006DC012D7E
:101040002DD0022D31D0042D7FD134E0102D3ED093
:10105000202D42D0402D78D145E00000030000044F
:101060000003000800000310000100080001FFF762
:101070007000F030B5F5004F61D009DCB5F5007FA8
:101080004AD0B5F5806F4DD0B5F5006F5DD150E019
:10109000B5F5803F2DD0B5F5003F56D12FE0A068C3
:1010A0005549FFF7B4FF064651E0E0680321FFF71A
:1010B000AEFF06464BE0E0680821FFF7A8FF0646B2
:1010C00045E0E0681021FFF7A2FF06463FE02069F7
:1010D0000321FFF79CFF064639E020690821FFF74E
:1010E00096FF064633E020691021FFF790FF064681
:1010F0002DE060680821FFF78AFF064627E0606858
:101100001021FFF784FF064621E0A0690121FFF7C7
:101110007EFF06461BE01BE0A0690221FFF777FF78
:10112000064614E0A0690421FFF771FF06460EE0B1
:101130000BE0A0697021FFF76AFF064607E06068D0
:101140000421FFF764FF064601E0002600BF00E02F
:101150000026304670BDB1F5007F3AD00FDC202963
:1011600028D006DC01291CD004291DD0082940D133
:101170001DE0402921D0B1F5807F3AD126E0B1F5BC
:10118000004F31D006DCB1F5806F25D0B1F5006F8E
:101190002FD124E0B1F5803F12D0B1F5003F28D126
:1011A00011E0154A826025E00822C26022E0102288
:1011B000C2601FE0082202611CE01022026119E0F7
:1011C0000822426016E01022426013E004224260CE
:1011D00010E0042242600DE0042242600AE0002296
:1011E00082610422426005E00022826104224260A2
:1011F00000E000BF00BF7047010101000146002070
:10120000FE4A106800F03800084310607047FB4940
:10121000096821F00801F94A116011460968014383
:1012200011607047F549096821F01001F34A116017
:1012300011460968014311607047F148EF49486061
:10124000F04848607047EE48EC494860ED48486017
:101250007047EA48006940F08000E849086170473B
:10126000E648006940F08000E449086170470420C6
:10127000E249C96801F0010109B101200EE0DF492E
:10128000C96801F0040109B1022007E0DB49C9681F
:1012900001F0100109B1032000E00420704700B5FF
:1012A00002460423FFF7E3FF034603E0FFF7DFFFF7
:1012B0000346521E012B01D1002AF7D102B90523A2
:1012C000184600BD30B5044604254FF43020FFF722
:1012D000E6FF0546042D17D1C848006940F002001A
:1012E000C649086108464461006940F04000086151
:1012F0004FF43020FFF7D3FF0546C048006941F6A0
:10130000FD710840BD490861284630BD10B5042470
:101310004FF43020FFF7C3FF0446042C16D1B74822
:10132000006940F00400B54908610846006940F0D2
:10133000400008614FF43020FFF7B1FF0446AF488A
:10134000006941F6FB710840AC490861204610BDB8
:1013500000B502460423FFF78AFF034603E0FFF7C8
:1013600086FF0346521E012B01D1002AF7D102B994
:101370000523184600BD10B504244FF43020FFF7B4
:10138000E7FF0446042C16D19C48006940F0040095
:101390009A4908610846006940F0400008614FF42E
:1013A0003020FFF7D5FF04469448006941F6FB71F1
:1013B000084092490861204610BD00208F49C96944
:1013C00001F0020109B1012000E00020704730B5B2
:1013D000A5250424FFF7F1FF00B100254FF43020CC
:1013E000FFF75DFF0446042C3AD1854883498860A5
:1013F000844888600846006940F02000086108467B
:10140000006940F0400008614FF43020FFF747FFCB
:101410000446042C1BD17948006941F6DF7108406D
:10142000764908610846006940F010000861764876
:101430000580E002FFF733FF0446052C10D06F480B
:10144000006941F6EF7108406C49086108E0052C1D
:1014500006D06A48006941F6EF71084067490861A3
:10146000204630BD78B506460C4604250020009085
:10147000E802FFF714FF0546042D24D15F480069F8
:1014800040F001005D4908613480E802FFF707FF82
:101490000546042D10D1B01C0090200C0099088046
:1014A000E802FFF7FCFE05465448006941F6FE716C
:1014B00008405249086106E05048006941F6FE7153
:1014C00008404E490861284678BD70B504460D466F
:1014D0000426F002FFF7E3FE0646042E11D147482A
:1014E000006940F00100454908612580F002FFF7DE
:1014F000D6FE06464148006941F6FE7108403F4964
:101500000861304670BD70B505460E460424E00201
:10151000FFF7C5FE0446042C17D1394837498860C7
:10152000384888600846006940F0100008612E8045
:10153000E002FFF7B4FE0446052C06D02F480069F0
:1015400041F6EF7108402D490861204670BD2DE934
:10155000F04304464FF6FF763746B046B1460425C1
:10156000E443E6B2C4F30727C4F307484FEA14691B
:10157000E802FFF794FE0546042D49D120481F4993
:101580008860204888600846006940F010000861C3
:10159000FF2E06D01C4808300680E802FFF77FFEC9
:1015A0000546042D08D1FF2F06D017480A300780C2
:1015B000E802FFF774FE0546042D0AD1B8F1FF0FCB
:1015C00007D011480C30A0F80080E802FFF767FE52
:1015D0000546042D0AD1B9F1FF0F07D00A480E3095
:1015E000A0F80090E802FFF75AFE0546052D0FD03F
:1015F0000248006941F6EF71084007E00020024010
:1016000023016745AB89EFCD00F8FF1F66490861EC
:101610002846BDE8F08330B5054604244FF4302059
:10162000FFF73DFE0446042C41D160485E498860C6
:101630005F4888600846006940F02000086108465D
:10164000006940F0400008614FF43020FFF727FEAA
:101650000446042C22D15448006941F6DF71084049
:10166000514908610846006940F0100008611DB149
:1016700000205049088002E0A5204E4908804FF420
:101680003020FFF70CFE0446052C10D046480069B8
:1016900041F6EF7108404449086108E0052C06D086
:1016A0004148006941F6DF7108403F490861204622
:1016B00030BDF0B505460E46174604243B483A496E
:1016C00088603B488860E002FFF7E9FD0446042C8F
:1016D00019D13548006940F010003349086147F0DE
:1016E000F800304328433349891C0880E002FFF7A3
:1016F000D6FD0446052C06D02B48006941F6EF7153
:101700000840294908612046F0BD2748C069800883
:1017100070472548006A704700202349096801F096
:10172000200109B1012000E00020704729B11E4AC4
:10173000126902431C4B1A6104E01B4A126982437E
:10174000194B1A61704701460020012908D1164A39
:10175000D26902F001020AB1012008E0002006E08F
:10176000114AD2680A400AB1012000E00020704707
:101770000D49C860704704200B49C96801F0010198
:1017800009B101200EE00849C96801F0040109B15E
:10179000022007E00449C96801F0100109B10320E3
:1017A00000E004207047000000200240230167454C
:1017B000AB89EFCD00F8FF1F10B50446CC4884423A
:1017C00008D10121042000F04DFB0021042000F08D
:1017D00049FB46E0C748844208D10121082000F0B7
:1017E00041FB0021082000F03DFB3AE0C248844262
:1017F00008D10121102000F035FB0021102000F05D
:1018000031FB2EE0BD48844208D10121202000F0A8
:1018100029FB0021202000F025FB22E0B84884426B
:1018200008D10121402000F01DFB0021402000F0E4
:1018300019FB16E0B348844208D10121802000F052
:1018400011FB0021802000F00DFB0AE0AE4884422D
:1018500007D10121801500F005FB0021A01500F043
:1018600001FB10BD10B50121084600F0FBFA002174
:10187000012000F0F7FA10BD2DE9F04102460025E5
:101880000026002000230024002791F803C00CF05C
:101890000F0591F803C00CF0100CBCF1000F03D041
:1018A00091F802C04CEA050591F800C0BCF1000FA8
:1018B00031D0146800202BE04FF0010C0CFA00F33B
:1018C000B1F800C00CEA03069E4220D183004FF01D
:1018D0000F0C0CFA03F7BC4305FA03FC4CEA0404B2
:1018E00091F803C0BCF1280F06D14FF0010C0CFA9F
:1018F00000FCC2F814C00AE091F803C0BCF1480F24
:1019000005D14FF0010C0CFA00FCC2F810C0401CCD
:101910000828D1D31460B1F800C0BCF1FF0F34DD4A
:10192000546800202EE000F1080C4FF0010808FA7E
:101930000CF3B1F800C00CEA03069E4221D18300EB
:101940004FF00F0C0CFA03F7BC4305FA03FC4CEA0A
:10195000040491F803C0BCF1280F05D100F1080C74
:1019600008FA0CF8C2F8148091F803C0BCF1480FD3
:1019700007D100F1080C4FF0010808FA0CF8C2F882
:101980001080401C0828CED35460BDE8F0814FF68B
:10199000FF710180022181700421C17070470246ED
:1019A000002093680B400BB1012000E0002070473D
:1019B0000146886880B2704702460020D3680B4019
:1019C0000BB1012000E0002070470146C86880B2DA
:1019D000704701617047416170470AB1016100E0E1
:1019E00041617047C16070474FF480320A438261A1
:1019F0008161826182698269704702460020434B9F
:101A000018684FF68073184040EA021008433F4BB5
:101A1000186070473E49C8617047F0B50A46002318
:101A200000240021002500F00046B6F1004F02D14D
:101A3000364EF16901E0354E7168C0F3034583B25B
:101A400000F44016B6F5401F08D121F070612F4E0A
:101A5000766826F070662D4F7E6012E000F48016E6
:101A6000B6F5801F06D1032606FA05F4A14341F01E
:101A7000706106E0460D360103FA06F6B14341F007
:101A8000706122B1460D360103FA06F6314300F0CB
:101A90000046B6F1004F02D11C4EF16101E01B4E31
:101AA0007160F0BD30B500228B071C0F0F2303FAC5
:101AB00004F2164B08338C1053F824309343134C24
:101AC00008348D1044F8253023468C1053F8243008
:101AD0008C07240F00FA04F423430C4C08348D10B7
:101AE00044F8253030BD0A49DC31086070470000F9
:101AF00000080140000C01400010014000140140AA
:101B000000180140001C014000200140000001407D
:101B1000000020420E49086070470D494860704738
:101B20000B49886070474AF6AA2009490860704747
:101B30004CF6CC4006490860704701460020044A34
:101B4000D2680A400AB1012000E00020704700007E
:101B500000300040DF48006840F00100DD490860C7
:101B600008464068DC490840DA4948600846006891
:101B7000DA490840D74908600846006820F4802008
:101B800008600846406820F4FE0048604FF41F00DB
:101B900088607047CF49096821F48031CD4A1160CF
:101BA0001146096821F480211160B0F5803F03D00F
:101BB000B0F5802F0ED106E0C649096841F48031A6
:101BC000C44A116007E0C349096841F4A021C14A31
:101BD000116000E000BF00BF704710B50146002251
:101BE000002300204A11012A02D1BA4C236806E0E2
:101BF000022A02D1B74C236A01E0B64C636A01F0B5
:101C00001F02012494401C400CB1012000E0002080
:101C100010BD38B5002000900024002500BF312001
:101C2000FFF7DBFF05460098401C00900098B0F5D8
:101C3000A06F01D0002DF2D03120FFF7CEFF08B108
:101C4000012400E00024204638BD01460020A14ABE
:101C5000106820F0F80040EAC10010607047A04909
:101C600008607047024600209A4B586820F47C10A8
:101C700042EA01031843974B586070479849086639
:101C8000704701460020934A506820F00300084343
:101C9000506070478F48406800F00C007047014664
:101CA00000208C4A506820F0F000084350607047D4
:101CB00001460020874A506820F4E06008435060E5
:101CC000704701460020834A506820F4605040EA83
:101CD000C1005060704729B17E4A527A02437D4B61
:101CE0005A7204E07B4A527A82437A4B5A727047A6
:101CF0007B49D8310860704701460020754A50681A
:101D000020F440400843506070470021714A20325F
:101D10001170704A82F82010012802D004280AD1DC
:101D200004E001216B4A2032117005E00521694A67
:101D30002032117000E000BF00BF704769490860A1
:101D400070476449096A0143624A116270476549F4
:101D500044390860704730B5002100220024002378
:101D60005C4D6D6805F00C0121B1042905D00829EE
:101D700023D105E05C4D056022E05B4D05601FE06E
:101D8000544D6D6805F47012524D6D6805F4803441
:101D9000022505EB92421CB9544D554305600BE0FA
:101DA0004C4D6D6805F400351DB1504D554305602F
:101DB00002E04D4D5543056002E04B4D056000BF0C
:101DC00000BF444D6D6805F0F0010909484D6B5C9A
:101DD0000568DD4045603F4D6D6805F4E061090A26
:101DE000434D6B5C4568DD4085603A4D6D6805F498
:101DF0006051C90A3E4D6B5C4568DD40C560354D9C
:101E00006D6805F44041890B3A4D6B5CC568B5FBC4
:101E1000F3F5056130BD29B12E4A526902432D4BBD
:101E20005A6104E02B4A526982432A4B5A61704737
:101E300029B1284A92690243264B9A6104E0254A57
:101E400092698243234B9A61704729B1214AD26932
:101E50000243204BDA6104E01E4AD26982431D4BE3
:101E6000DA61704729B11B4AD2680243194BDA6024
:101E700004E0184AD2688243164BDA60704729B1F1
:101E8000144A12690243134B1A6104E0114A1269A1
:101E90008243104B1A6170471249403908607047FD
:101EA0000F49C86470470B49C87170470948406AB8
:101EB00040F0807007494862704701460020054A9B
:101EC00092680A400AB1012000E0002070470149F1
:101ED00088727047001002400000FFF8FFFFF6FE16
:101EE000000042428004424200127A0000093D0094
:101EF000320200204202002010B50446FE4884420F
:101F000008D10121C014FFF7ADFF0021E014FFF755
:101F1000A9FFC4E0B4F1804F08D101210846FFF7C2
:101F2000AEFF00210120FFF7AAFFB8E0F34884428A
:101F300008D101210220FFF7A2FF00210220FFF7B4
:101F40009EFFACE0EE48844208D101210420FFF757
:101F500096FF00210420FFF792FFA0E0E9488442A9
:101F600008D101210820FFF78AFF00210820FFF790
:101F700086FF94E0E448844208D101211020FFF755
:101F80007EFF00211020FFF77AFF88E0DF488442BF
:101F900008D101212020FFF772FF00212020FFF748
:101FA0006EFF7CE0DA48844208D101214014FFF73B
:101FB00059FF00216014FFF755FF70E0D5488442B7
:101FC00009D10121C804FFF74DFF00214FF4002083
:101FD000FFF748FF63E0D048844209D1012108059A
:101FE000FFF740FF00214FF48010FFF73BFF56E062
:101FF000CA48844209D101214805FFF733FF002177
:102000004FF40010FFF72EFF49E0C548844208D185
:1020100001214020FFF733FF00214020FFF72FFF71
:102020003DE0C048844208D101218020FFF727FF0E
:1020300000218020FFF723FF31E0BB48844208D114
:1020400001218015FFF71BFF0021A015FFF717FFE7
:1020500025E0B648844209D101210804FFF702FFB8
:1020600000214FF48030FFF7FDFE18E0B0488442B5
:1020700009D101214804FFF7F5FE00214FF400309B
:10208000FFF7F0FE0BE0AB48844208D10121880441
:10209000FFF7E8FE00214FF48020FFF7E3FE10BDBC
:1020A00000220288944B98420ED0994B98420BD054
:1020B000B0F1804F08D0914B984205D0904B984298
:1020C00002D0904B984204D14FF68F731A404B8840
:1020D0001A438D4B984207D08C4B984204D04FF650
:1020E000FF431A40CB881A4302808B8883850B8874
:1020F0000385814B98420BD0854B984208D08B4B7F
:10210000984205D08A4B984202D08A4B984201D11E
:102110000B7A038601238382704770B50024002266
:102120000023058C4FF6FE7635400584028C8388AB
:10213000048B4FF68F752C40B51E2C400D882C4318
:10214000751E2A400D892A434D882A436A4DA842AC
:102150000BD06F4DA84208D0744DA84205D0744DE5
:10216000A84202D0734DA84213D14FF6F7752A400A
:102170004D892A434FF6FB752A408D882A434FF636
:10218000FF652B404FF6FF552B408D892B43CD89A2
:102190002B4383800483CD888586028470BD70B50F
:1021A000002400220023058C4FF6EF76354005848D
:1021B000028C8388048B48F6FF752C404FF6FF4550
:1021C0002C400D884FF6FF7606EA05252C434FF686
:1021D000DF752A400D8906EA05152A434D8806EA6F
:1021E00005152A43444DA84202D0494DA8421DD1AD
:1021F0004FF67F752A404D894FF6FF7606EA0515A2
:102200002A434FF6BF752A408D8806EA05152A43F2
:102210004FF6FF352B404FF2FF752B408D8906EAB4
:1022200085052B43CD8906EA85052B4383800483EE
:10223000CD880587028470BD70B50024002200237C
:10224000058C4FF6FF6635400584028C8388848BAD
:102250004FF68F752C404FF6FC752C400D882C43A3
:102260004FF6FF552A400D894FF6FF7606EA052501
:102270002A434D8806EA05252A431F4DA84202D06D
:10228000234DA8421DD14FF2FF752A404D894FF6CC
:10229000FF7606EA05252A434FF6FF352A408D884A
:1022A00006EA05252A434EF6FF752B404DF6FF75CD
:1022B0002B408D8906EA05152B43CD8906EA0515C5
:1022C0002B4383808483CD888587028470BD70B55D
:1022D000002200230024058C4EF6FF76354005844D
:1022E000038C8488828B48F6FF752A404FF6FF45A1
:1022F0002A400D8820E00000002C0140000400402E
:1023000000080040000C0040001000400014004095
:1023100000340140004C0140005001400054014095
:1023200000180040001C0040002000400040014018
:1023300000440140004801404FF6FF7606EA0525BB
:102340002A434DF6FF752B400D8906EA05352B43D0
:102350004D8806EA05352B43FA4DA84202D0FA4DC6
:10236000A84208D14BF6FF752C408D894FF6FF76B9
:1023700006EA85152C4384808283CD88A0F84050DE
:10238000038470BD828B4FF2FF331A408283828BAD
:102390004FF6FF7303EA01231A4382837047F0B5B7
:1023A0000C461546002200210026078C4EF6FF7CC5
:1023B00007EA0C070784828B018C4FF6FF7707EA48
:1023C000043640F6FF473A404FF6FF7707EA052705
:1023D0003A434FF6FF7707EA03373A43D94FB842FB
:1023E0000ED0D94FB8420BD0B0F1804F08D0D74FA4
:1023F000B84205D0D64FB84202D0D64FB84206D127
:102400004DF6FF77394046F48057394305E047F6EB
:10241000FF57394044F48057394382830184F0BD2B
:10242000828B4FF6F3731A408283828B0A43828336
:102430007047F0B50C461546002200210026078C97
:102440004FF6FF6C07EA0C070784828B018C4FF66E
:10245000FF7707EA04264FF60C773A404FF6FF77EE
:1024600007EA03172F433A43B64FB8420ED0B64F90
:10247000B8420BD0B0F1804F08D0B44FB84205D06D
:10248000B34FB84202D0B34FB84206D14FF6FF5710
:10249000394046F48077394305E04FF2FF57394021
:1024A00044F48077394382830184F0BD028B4FF27C
:1024B000FF331A400283028B4FF6FF7303EA0123B6
:1024C0001A4302837047F0B50C46154600220021DE
:1024D0000026078C4FF6EF7C07EA0C070784028B77
:1024E000018C4FF6FF7707EA041640F6FF473A40A3
:1024F0004FF6FF7707EA03373A434FF6FF7707EACD
:1025000005273A438F4FB8420ED08F4FB8420BD0B9
:10251000B0F1804F08D08D4FB84205D08C4FB842F3
:1025200002D08C4FB84206D14FF6DF77394046F0E3
:102530001007394305E04FF65F77394044F0100744
:10254000394302830184F0BD028B4FF6F3731A40C6
:102550000283028B0A4302837047F0B50C4615468E
:1025600000220021068C4FF6FE773E400684028B47
:10257000018C4FF60C7632407E1C06EA03162E4381
:102580003243704EB0420ED06F4EB0420BD0B0F11D
:10259000804F08D06D4EB04205D06D4EB04202D093
:1025A0006C4EB04206D14FF6FD76314044F0010644
:1025B000314305E04FF6F576314044F001063143F2
:1025C00002830184F0BD70B505460C465D48854226
:1025D0000ED05D4885420BD0B5F1804F08D05B48E6
:1025E000854205D05A48854202D05A48854200D1DA
:1025F00000E000BF208850B92389A288618828465E
:10260000FFF7ABFFE1882846FFF79EFF25E0208813
:1026100004280AD12389A28861882846FFF753FF3E
:10262000E1882846FFF742FF17E0208808280AD1F2
:102630002389A28861882846FFF7FBFEE1882846A7
:10264000FFF7EEFE09E02389A28861882846FFF79C
:10265000A6FEE1882846FFF795FE70BD2DE9F04102
:1026600005460C4600260127608808B9022600E0CE
:102670000026A088012801D1022700E00127208838
:10268000A0B92389A28861882846FFF766FFE18800
:102690002846FFF759FF23893A4631462846FFF777
:1026A00012FFE1882846FFF701FF13E02389A28883
:1026B00061882846FFF707FFE1882846FFF7F6FE06
:1026C00023893A4631462846FFF747FFE1882846E6
:1026D000FFF73AFFBDE8F0810A884B881A438B88E0
:1026E0001A43CB881A430B891A434B891A438B89A7
:1026F0001A43A0F8442070474FF6FF7181800021F3
:102700000180C180418001727047002101804180B9
:102710008180C180018141818181C1817047002117
:1027200001804180012181800021C18001817047A9
:102730000021018041808180C180018141818181AE
:1027400070470000002C01400034014000040040AC
:1027500000080040000C004021B1028842F0010254
:10276000028004E002884FF6FE731A400280704730
:1027700031B1B0F8442042F40042A0F8442005E012
:10278000B0F84420C2F30E02A0F8442070471AB1FA
:1027900083890B43838102E083898B438381704764
:1027A0008182704741EA0203A0F8483070471AB1AD
:1027B00083890B43838102E083898B438381704744
:1027C00001894FF6F8721140018170470A460021D5
:1027D00001894FF68F73194011430181704730B55D
:1027E00004460D4629462046FFF7F0FF208940F0B9
:1027F0000700208130BD2DE9F04104460D46164604
:102800001F46602D06D13B46012231462046FFF788
:102810005AFE05E03B46012231462046FFF79DFE69
:1028200029462046FFF7D2FF208940F0070020818B
:10283000BDE8F08130B50C4600210189C9B24FF6E0
:10284000FF7505EA0325154325432943018130BD62
:102850002DE9F04105460E461746984600244346AA
:102860003A4631462846FFF7E5FF2C894FF6F870C7
:10287000044044F007044FF68F70044044F07004A5
:102880002C81BDE8F081F0B504460D4616461F4682
:102890003B46324629462046FFF7CCFF208940F4CC
:1028A00080402081F0BD0185828270470A46002168
:1028B00001884FF68F731940114301807047F0B5BE
:1028C0000C4615461E460021002200230189028B7A
:1028D000038C4FF6F877394021434FF6FC473A40D6
:1028E00040F201173A434FF6DD773B404FF6FF7752
:1028F00007EA06172F433B43018102830384F0BD9F
:102900000A460021018B4FF68F7319401143018352
:1029100070470A460021018B48F6FF7319404FF6B5
:10292000FF7303EA02231943018370470A4600211B
:10293000818B4FF68F7319401143818370470A468C
:102940000021818B48F6FF7319404FF6FF7303EAAD
:10295000022319438183704721B1028842F080022B
:10296000028004E002884FF67F731A4002807047AD
:1029700021B1828842F00402828004E082884FF60E
:10298000FB731A408280704721B1828842F00802AE
:10299000828004E082884FF6F7731A408280704785
:1029A00021B1828842F00102828004E082884FF6E1
:1029B000FE731A40828070470A460021018B4FF651
:1029C000F77319401143018370470A460021018BB8
:1029D0004FF2FF7319404FF6FF7303EA02231943C6
:1029E000018370470A460021818B4FF6F773194027
:1029F0001143818370470A460021818B4FF2FF7398
:102A000019404FF6FF7303EA02231943818370478D
:102A10000A460021018B4FF6FB73194011430183D5
:102A200070470A460021018B4FF6FF3319404FF6DD
:102A3000FF7303EA02231943018370470A4600210A
:102A4000818B4FF6FB7319401143818370470A460F
:102A50000021818B4FF6FF3319404FF6FF7303EAD5
:102A600002231943818370470A460021018B4FF6E8
:102A70007F7319401143018370470A460021018B7F
:102A8000C1F30E014FF6FF7303EA022319430183DA
:102A900070470A460021818B4FF67F73194011431E
:102AA000818370470A460021818BC1F30E014FF6E6
:102AB000FF7303EA02231943818370470A4600210A
:102AC000018C4FF6FD7319401143018470470A468B
:102AD0000021018C4FF6F7731940114301847047B0
:102AE0000A460021018C4FF6DF7319404FF6FF7341
:102AF00003EA02131943018470470A460021018C3E
:102B00004FF67F7319404FF6FF7303EA0213194320
:102B1000018470470A460021018C4FF6FF5319408B
:102B20004FF6FF7303EA02231943018470470A46F4
:102B30000021018C4FF2FF7319404FF6FF7303EA37
:102B400002231943018470470A460021018C4DF687
:102B5000FF7319404FF6FF7303EA023319430184F0
:102B6000704730B5002301248C40A3B2048C9C43F1
:102B70000484048C02FA01F5ADB22C43048430BD08
:102B800030B5002304248C40A3B2048C9C430484FD
:102B9000048C02FA01F5ADB22C43048430BD70B54B
:102BA0000346002000241846183001258D40ACB2A1
:102BB0001D8CA5431D8409B1082909D100EB6100D2
:102BC000056825F0700505600568154305600EE091
:102BD0000D1FC5F34E052844056825F4E045056042
:102BE00005684FF6FF7606EA02263543056070BD9C
:102BF00021B1028842F00202028004E002884FF60E
:102C0000FD731A400280704721B1028842F004022D
:102C1000028004E002884FF6FB731A40028070477E
:102C200021B1828842F08002828004E082884FF6DF
:102C30007F731A408280704702884FF6F7731A40FC
:102C4000028002880A430280704782884FF68F73A1
:102C50001A40828082880A438280704702894FF638
:102C6000F8731A40028102890A430281704702897F
:102C70004FF67F731A40028102890A43028170472E
:102C800081847047818570478186704701877047CE
:102C900081877047A0F84010704702884FF6FF43C5
:102CA0001A40028002880A43028070470146888EDB
:102CB00070470146088F70470146888F704701466C
:102CC000B1F8400070470146888C70470146088D76
:102CD000704702460020138A0B400BB1012000E030
:102CE00000207047CA430282704730B50246002078
:102CF00000230024158A05EA0103958905EA0104E9
:102D000013B10CB1012000E0002030BDCA430282A3
:102D10007047000010B50446FB48844209D10121E8
:102D20008803FFF79FF800214FF48040FFF79AF8DF
:102D300032E0F648844209D101214804FFF79FF8A8
:102D400000214FF40030FFF79AF825E0F048844264
:102D500009D101218804FFF792F800214FF4802067
:102D6000FFF78DF818E0EB48844209D10121C8042F
:102D7000FFF785F800214FF40020FFF780F80BE003
:102D8000E548844208D101210805FFF778F80021C1
:102D90004FF48010FFF773F810BD2DE9F04786B0AF
:102DA00005460E460024A24600BFA1460027B08972
:102DB00000B100BF2F462C8A4CF6FF700440F0880B
:102DC00004432C82AC894EF6F3100440B08831895C
:102DD0000843718908430443AC81AC8A4FF6FF4035
:102DE0000440B0890443AC8201A8FEF7B4FFC64892
:102DF000874202D1DDF810A001E0DDF80CA0A8891F
:102E000000F4004040B10AEBCA0000EB0A10316840
:102E10004900B0FBF1F807E00AEBCA0000EB0A102A
:102E200031688900B0FBF1F86420B8FBF0F00401D0
:102E30002009642101FB1089A88900F4004040B1F9
:102E4000322000EBC900B0FBF1F000F007000443B2
:102E500008E0322000EB09106421B0FBF1F000F033
:102E60000F0004432C8106B0BDE8F0874FF41651E3
:102E7000016000218180C18001810C2141810021FC
:102E80008181704710B502460020108A4FF2FF037F
:102E900018400B884C8823438C882343CC882343D9
:102EA0001843108210BD0021018041808180C180C3
:102EB000704721B1828942F40052828104E0828904
:102EC0004DF6FF731A4082817047F0B50346002427
:102ED00000260025002040F66A17B94200D100BF45
:102EE0001846C1F3421401F01F06012707FA06F540
:102EF000012C01D10C3004E0022C01D1103000E093
:102F000014301AB107682F43076002E00768AF4327
:102F10000760F0BD1AB1838A0B43838202E0838A83
:102F20008B4383827047028A4FF6F0731A40028205
:102F3000028A0A430282704782894FF2FF731A4065
:102F4000828182890A438281704721B1828942F05D
:102F50000202828104E082894FF6FD731A40828169
:102F60007047028A4FF6DF731A400282028A0A43D0
:102F70000282704721B1028A42F48042028204E058
:102F8000028A4BF6FF731A4002827047C1F30802AF
:102F90008280704701468888C0F3080070478189A5
:102FA00041F0010181817047028BD2B20283028B12
:102FB00042EA012202837047028B02F47F420283BD
:102FC000028B0A430283704721B1828A42F02002B9
:102FD000828204E0828A4FF6DF731A408282704751
:102FE00021B1828A42F01002828204E0828A4FF686
:102FF000EF731A408282704721B1828A42F0080240
:10300000828204E0828A4FF6F7731A408282704708
:1030100021B1828942F40042828103E08289C2F3B5
:103020000E028281704721B1828A42F4006282825C
:1030300004E0828A4FF2FF731A4082827047828ACC
:103040004FF6FB731A408282828A0A43828270475B
:1030500021B1828A42F00202828204E0828A4FF623
:10306000FD731A408282704702460020B1F5007F4E
:1030700000D100BF13880B400BB1012000E00020FD
:10308000704701F40072B2F5007F00D100BFCA435F
:103090000280704770B502460024002300250020FE
:1030A00040F66A16B14200D100BFC1F3421501F0EB
:1030B0001F03012606FA03F3012D02D1968933403E
:1030C00006E0022D02D1168A334001E0968A334091
:1030D0000C12012606FA04F41688344013B10CB120
:1030E000012000E0002070BD10B50022002340F652
:1030F0006A14A14200D100BF0A1201249440A3B275
:10310000DC43048010BD0000003801400044004052
:1031100000480040004C0040005000400CB500202A
:10312000019000906C48006840F480306A49086063
:1031300000BF6948006800F4003000900198401C0E
:103140000190009818B90198B0F5A06FF1D16248CC
:10315000006800F4003010B10120009001E0002070
:1031600000900098012843D15C48006840F01000AE
:103170005A4908600846006820F0030008600846C5
:10318000006840F0020008605348406852494860B7
:103190000846406848600846406840F480604860DF
:1031A0000846406820F47C1048600846406840F4B7
:1031B000E81048600846006840F08070086000BF72
:1031C0004548006800F000700028F9D04248406887
:1031D00020F00300404948600846406840F0020083
:1031E000486000BF3C48406800F00C000828F9D156
:1031F0000CBD10B5FFF792FF10BD10B53648006842
:1032000040F00100344908600846406834490840ED
:103210003149486008460068324908402E49086034
:103220000846006820F4802008600846406820F4C2
:10323000FE0048604FF41F008860FFF7DAFF4FF090
:1032400000602949086010BD10B50021002000224F
:10325000214B5B6803F00C0121B1042906D0082939
:1032600028D107E0214B224C236027E01F4B204C44
:10327000236023E0184B5B6803F47010164B5B6807
:1032800003F48032022303EB904022B9194B4343ED
:10329000174C23600DE0104B5B6803F4003323B13F
:1032A000144B4343124C236003E0104B4343104C38
:1032B000236003E00D4B0E4C236000BF00BF064BA4
:1032C0005B68C3F303130C4CE15C094B1B68CB40F8
:1032D000074C236010BD0000001002400020024097
:1032E0000000FFF8FFFFF6FE08ED00E000127A0094
:1032F0004802002000093D004C02002008B50121D1
:103300000820FEF795FD01210846FEF791FD0121F9
:103310002A48FEF782FB4FF40040ADF80000102071
:103320008DF8030003208DF8020069462448FEF75B
:10333000A3FA00224FF400412148FEF74EFB4FF460
:103340000040ADF8000010208DF8030003208DF838
:10335000020069461B48FEF78FFA00224FF4004135
:103360001848FEF73AFB08BD012808D115490C3171
:10337000096881F40041134A0C3211601DE00228F3
:1033800008D10F490C31096881F400510C4A0C3204
:10339000116012E0032808D109490C31096881F451
:1033A0008041074A0C32116007E005490C31096879
:1033B00081F40041024A0C32116070470002300073
:1033C000000C01400008014030B500BF1F480068F4
:1033D0001F4AB0FBF2F1B1F1807F01D301201DE063
:1033E00021F07F40401E4FF0E022506150170F2225
:1033F000002807DA13071D0E164B00F00F04241FD8
:103400001D5503E013071C0E134B1C5400BF002076
:103410004FF0E02290610720106100200028D5D1F4
:1034200030BD0E49088000BF0C4909880029FBD136
:10343000704700B5024603E04FF47A70FFF7F1FFE2
:103440001000A2F101018AB2F6D100BD48020020AD
:1034500040420F0018ED00E000E400E014020020FC
:10346000014600BF704700BFF94A128802F04002CF
:10347000002AF9D0C2B2F64B1B1D1A80704700BF5C
:10348000F348008800F020000028F9D0F048001D23
:103490000088C0F30800704704E0EE4800780F2869
:1034A00000D100E0F9E700BF0020EA49087070474A
:1034B00000BFE94909785629FBD1E74949784129F4
:1034C000F7D1E54989785229F3D10021E24A1170F8
:1034D000517091701146C978017011460979417097
:1034E00011464979817011468979C1700021DB4A02
:1034F0001170DB4A117000BF00BF704700217B28AC
:1035000007D100BF0122D74B1A700022D64B1A7088
:1035100047E07D2806D10022D24B1A700122D34BFE
:103520001A703EE03A2801D02C2806D1CE4A1278F3
:10353000521CCD4B1A70002133E0CA4A1278012A7E
:103540000BD1032906DAC84A127802EB4202C84BB3
:103550001A4450544A1CD1B223E04F2803D101220F
:10356000BC4B1A701DE04B2807D1BA4A127802F002
:103570000D02921CB74B1A7013E00D2807D1B54A03
:10358000127802F00B02121DB24B1A7009E00A28E1
:1035900007D1B04A127802F0070242F00802AD4BA0
:1035A0001A70704710B519E1B04800780128FAD1B7
:1035B000AF4800785628F6D1AD4840784128F2D17E
:1035C000AB4880785228EED1A9484079302816DBE4
:1035D000A7484079392812DCA548C07830386423E0
:1035E0005843A34B1B79303B03EB830300EB4303AE
:1035F0009F484079303818449E4B187021E09C4811
:103600000079302810DB9A48007939280CDC98487A
:1036100000793038964BDB78303B03EB830300EBCB
:103620004300944B18700CE09148C078302808DBB8
:103630008F48C078392804DC8D48C07830388D4BED
:1036400018708B48007A302816DB8948007A3928B0
:1036500012DC87488079303864235843844BDB7907
:10366000303B03EB830300EB43038148007A30389F
:103670001844804B587021E07D48C079302810DB19
:103680007B48C07939280CDC7948C0793038784BD0
:103690009B79303B03EB830300EB4300754B587081
:1036A0000CE073488079302808DB7148807939282C
:1036B00004DC6F48807930386E4B58706C48C07AA3
:1036C000302816DB6A48C07A392812DC6848407A0C
:1036D000303864235843664B9B7A303B03EB8303BB
:1036E00000EB43036248C07A30381844614B98704D
:1036F00021E05F48807A302810DB5D48807A3928E5
:103700000CDC5B48807A3038594B5B7A303B03EBFA
:10371000830300EB4300574B98700CE05448407A09
:10372000302808DB5248407A392804DC5048407A77
:103730003038504B98704E48807B302816DB4C4810
:10374000807B392812DC4A48007B30386423584398
:10375000474B5B7B303B03EB830300EB4303444865
:10376000807B30381844434BD87021E04048407B80
:10377000302810DB3E48407B39280CDC3C48407B3D
:1037800030383B4B1B7B303B03EB830300EB4300A8
:10379000384BD8700CE03648007B302808DB3448C2
:1037A000007B392804DC3248007B3038314BD8703C
:1037B00000210DE0002207E0002001EB41032C4C2A
:1037C00023449854501CC2B2032AF5DB481CC1B2F2
:1037D0000529EFDB0020254B187000E0E4E600BF70
:1037E00010BD30B5034659E020480078012855D176
:1037F0001F48007855281CD11D484078502818D102
:10380000012018700020194C207000210EE00022C9
:1038100007E0002001EB4104154D2C44A054501C3E
:10382000C2B2032AF5DB481CC0B201460529EEDB13
:1038300035E00F480078442830D10D4840784E28B4
:103840002CD100201870094C2070002123E00000CA
:103850000038014063020020690200206D02002050
:103860006E0200206102002060020020620200203F
:103870009C09002064020020002207E0002001EBE8
:103880004104394D2C44A054501CC2B2032AF5DB2C
:10389000481CC0B201460529EEDB00E0A4E700BFEA
:1038A00030BD70B5044600250FE0207860B1217866
:1038B0002E48FFF76BFB00BF80212C48FFF7D4FB9D
:1038C0000028F9D0641C00E070BDEEE710B586B0AA
:1038D0000446012144F20500FEF7AAFA4FF40070F5
:1038E000ADF8140003208DF8160018208DF817008D
:1038F00005A91F48FDF7C0FF4FF48060ADF8140024
:1039000004208DF8170005A91948FDF7B5FF2520FB
:103910008DF8000000208DF8010003208DF80200D2
:1039200001208DF803006846FCF707FF0194002092
:10393000ADF80800ADF80A00ADF80C00ADF81000C5
:103940000C20ADF80E0001A90848FFF726FA012265
:1039500040F225510548FFF7B8FA01210348FFF767
:10396000A8FA06B010BD00009C09002000380140F4
:103970000008014038B5502001F063FD8DF80000CB
:10398000592001F05EFD8DF801009DF8001001F056
:103990000C0149009DF8012001EB521002F038FDA6
:1039A000FE490860512001F04CFDFD490860FB48CC
:1039B0000168FC4802F00EFB044602F03FFDFA49A4
:1039C000086038BD10B5FF21062001F0AAFDFF21D7
:1039D000072001F0A6FD10BD2DE9F84FDFF8CCA3BC
:1039E000EF49096841F23012501A02F011FD5146B8
:1039F000009002F047FB834602F052FD074600228A
:103A0000EB4B02F07DFB054602F031FDC0F30714DD
:103A1000E3490968C1F5166002F0FAFC51460090CE
:103A200002F030FB834602F03BFD07460022E04BEC
:103A300002F066FB054602F01AFDC0F307192146A5
:103A4000092001F06EFD49460A2001F06AFDBDE83B
:103A5000F88F10B5FFF7C0FF10BD10B500240AE0C5
:103A60000A20FFF7E6FCD34A115DD34A105D01F04E
:103A700058FD601CC4B20C2CF2DB10BD10B5FFF772
:103A8000ECFF10BD10B501222021CC48FDF7A5FFA9
:103A90006420FFF7CEFC00222021C848FDF79DFFDF
:103AA00010BD10B5FFF7EEFFFFF7E8FFFFF762FF6D
:103AB000FFF7CFFFFFF786FFFF21002001F031FD68
:103AC00010BD10B5FF21002001F02BFD10BD1FB56A
:103AD0000C2001F0B6FC03900D2001F0B2FC029026
:103AE000039804B2029840EA042004B2AE48006889
:103AF00060434FF47A7190FBF1F0A94909880844BA
:103B000004B2AF480460C4F307200190E0B2009013
:103B1000AC49019888700098C870AB4901988870CA
:103B20000098C870A949019888700098C8701FBD96
:103B30001CB50E2001F085FC8DF805000F2001F06A
:103B400080FC8DF804009DF805409DF8040040EAD3
:103B500004249548006860434FF47A7190FBF1F0BB
:103B60008F490968441896484460C4F30720ADF8AB
:103B70000200E0B2ADF80000BDF802009149087102
:103B8000BDF800004871BDF802008F490871BDF80A
:103B900000004871BDF802008C490871BDF80000B2
:103BA00048711CBD1CB5102001F04BFC8DF80500C0
:103BB000112001F046FC8DF804009DF805409DF8A9
:103BC000040040EA04247848006860434FF47A71A6
:103BD00090FBF1F0724909684418200A8DF8010041
:103BE000E0B28DF80000764884609DF801007549C8
:103BF00088719DF80000C8719DF8010072498871B4
:103C00009DF80000C8719DF80100704988719DF809
:103C10000000C8711CBD1CB5122001F012FC8DF80B
:103C20000500132001F00DFC8DF804009DF80540FF
:103C30009DF8040040EA04245B48006860434FF4A8
:103C40007A7190FBF1F0564909684418200A8DF802
:103C50000100E0B28DF800005948C4609DF80100F1
:103C6000584908729DF8000048729DF801005649B5
:103C700008729DF8000048729DF801005449887050
:103C80009DF80000C8701CBD1CB5142001F0D9FBC4
:103C90008DF80500152001F0D4FB8DF804009DF887
:103CA00005409DF8040040EA042004B23E48006844
:103CB00060434FF47A7190FBF1F039490988084468
:103CC00004B23F480461200A8DF80100E0B28DF88B
:103CD00000009DF801003B4988729DF80000C87201
:103CE0009DF80100384988729DF80000C8729DF85F
:103CF0000100374908719DF8000048711CBD1CB5D2
:103D0000162001F09EFB8DF80500172001F099FBAD
:103D10008DF804009DF805409DF8040040EA042059
:103D200004B22148006860434FF47A7190FBF1F0CF
:103D30001B490988084404B221484461200A8DF8CF
:103D40000100E0B28DF800009DF801001D490873E4
:103D50009DF8000048739DF801001B4908739DF809
:103D6000000048739DF80100194988719DF8000012
:103D7000C8711CBD1CB5182001F063FB8DF805004F
:103D8000192001F05EFB8DF804009DF805409DF8B8
:103D9000040040EA042004B203481BE0780200203B
:103DA000700200200080B643740200202506C13E48
:103DB0000000E03F5005002044050020000C0140B9
:103DC000EC0900207C020020700400200605002081
:103DD0000E050020006860434FF47A7190FBF1F00B
:103DE000FB490988084404B2FA488461200A8DF826
:103DF0000100E0B28DF800009DF80100F6498873DB
:103E00009DF80000C8739DF80100F44988739DF87F
:103E10000000C8739DF80100F14988709DF800000A
:103E2000C8701CBD1CB51A2001F00BFB8DF80500F5
:103E30001B2001F006FB8DF804009DF805409DF85D
:103E4000040040EA0424E748006860434FF47A71B4
:103E500090FBF1F0DE4909684418200A8DF8010052
:103E6000E0B28DF80000DB48C4619DF80100DA493A
:103E700008749DF8000048749DF80100D749087443
:103E80009DF8000048749DF80100D54908719DF81F
:103E9000000048711CBD1CB51C2001F0D2FA8DF841
:103EA00005001D2001F0CDFA8DF804009DF80540B5
:103EB0009DF8040040EA042004B2CA480068604348
:103EC0004FF47A7190FBF1F0C1490988084404B2BB
:103ED000200A8DF80100E0B28DF80000BD480462B0
:103EE0009DF80100BC4988749DF80000C8749DF8D5
:103EF0000100BA4988749DF80000C8749DF801005B
:103F0000B74988719DF80000C8711CBD1CB51E2002
:103F100001F097FA8DF805001F2001F092FA8DF854
:103F200004009DF805409DF8040040EA042004B216
:103F3000AC48006860434FF47A7190FBF1F0A449FB
:103F40000988084404B2A3484462200A8DF801009D
:103F5000E0B28DF800009DF801009F4908759DF8BA
:103F6000000048759DF801009F4988709DF8000089
:103F7000C8709DF801009D4988709DF80000C870C8
:103F80001CBD1CB5202001F05CFA8DF80500212035
:103F900001F057FA8DF804009DF805409DF80400E3
:103FA00040EA042004B28F48006860434FF47A71FD
:103FB00090FBF1F086490988084404B28548846280
:103FC000200A8DF80100E0B28DF800009DF8010094
:103FD000814988759DF80000C8759DF801008249E7
:103FE00008719DF8000048719DF801007F49087133
:103FF0009DF8000048711CBD1CB5222001F021FA7B
:104000008DF80500232001F01CFA8DF804009DF8BE
:1040100005409DF8040040EA042004B2714800689D
:1040200060434FF47A7190FBF1F0694909880844C4
:1040300004B26848C462200A8DF80100E0B28DF82D
:1040400000009DF80100644908769DF8000048765C
:104050009DF80100644988719DF80000C8719DF8C1
:104060000100624988719DF80000C8711CBD1CB533
:10407000242001F0E6F98DF80500252001F0E1F992
:104080008DF804009DF805409DF8040040EA0420E6
:1040900004B25448006860434FF47A7190FBF1F029
:1040A0004B490988084404B24A480463200A8DF841
:1040B0000100E0B28DF800009DF8010046498876C5
:1040C0009DF80000C8769DF80100474908729DF8E8
:1040D000000048729DF80100454988709DF8000075
:1040E000C8701CBD1CB5262001F0ABF98DF8050089
:1040F000272001F0A6F98DF804009DF805409DF8F1
:10410000040040EA042004B23648006860434FF4DB
:104110007A7190FBF1F02E490988084404B22D48C9
:104120004463200A8DF80100E0B28DF800009DF88C
:104130000100294908779DF8000048779DF80100A3
:10414000294988729DF80000C8729DF8010028492D
:1041500008719DF8000048711CBD1CB5282001F0B5
:1041600070F98DF80500292001F06BF98DF8040035
:104170009DF805409DF8040040EA042004B2194867
:10418000006860434FF47A7190FBF1F010490988A0
:10419000084404B20F488463200A8DF80100E0B29D
:1041A0008DF800009DF801000B4988779DF800000C
:1041B000C8779DF801000C4908739DF8000048730A
:1041C0009DF801000A4988719DF80000C8711CBD66
:1041D00070020020EC0900207C0200207004002006
:1041E0001605002074020020A20400201E050020F5
:1041F00026050020FD490968FC4A52681144FB4A23
:1042000012691144F94A52691144F84A92691144F9
:10421000F64A526A1144F54A926A1144F34AD26A44
:104220001144F24A926B8818F049C863898F090AD1
:10423000EF4A82F82010ED4991F83C1082F82110E5
:10424000114691F82010EB4A9173E94991F8211039
:10425000D173E74991F82010E74A9170E44991F849
:104260002110D1707047E148C06B49F224018842A7
:1042700003DD6420E14908602CE1DC48C06B49F2B1
:104280002401884209DDD948C06B49F2E611884211
:1042900003DA5F20D94908601CE1D448C06B48F6B6
:1042A0006261884209DDD148C06B49F2240188422D
:1042B00003DA5A20D14908600CE1CC48C06B48F6BB
:1042C000A041884209DDC948C06B48F66261884256
:1042D00003DA5820C9490860FCE0C448C06B48F6BE
:1042E000DE21884209DDC148C06B48F6A041884202
:1042F00003DA5720C1490860ECE0BC48C06B48F6BF
:104300001C11884209DDB948C06B48F6DE2188429D
:1043100003DA5620B9490860DCE0B448C06B48F6BF
:104320001C11884209DDB148C06B48F6DE21884285
:1043300003DA5520B1490860CCE0AC48C06B48F2C4
:104340005A71884209DDA948C06B48F61C118842A1
:1043500003DA5420A9490860BCE0A448C06B48F2C5
:104360009851884209DDA148C06B48F25A718842D1
:1043700003DA5320A1490860ACE09C48C06B48F2C6
:10438000D631884209DD9948C06B48F2985188427D
:1043900003DA5220994908609CE09448C06B48F2C7
:1043A0001421884209DD9148C06B48F2D631884219
:1043B00003DA5120914908608CE08C48C06B48F2C8
:1043C0005201884209DD8948C06B48F214218842B5
:1043D00003DA5020894908607CE08448C06B47F6C6
:1043E0009061884209DD8148C06B48F252018842E1
:1043F00003DA4F20814908606CE07C48C06B47F6C7
:10440000CE41884209DD7948C06B47F69061884209
:1044100003DA4E20794908605CE07448C06B47F6C7
:104420000C31884209DD7148C06B47F6CE418842A5
:1044300003DA4D20714908604CE06C48C06B47F6C8
:104440004A11884209DD6948C06B47F60C31884241
:1044500003DA2820694908603CE06448C06B47F2F1
:104460008871884209DD6148C06B47F60C3188428B
:1044700003DA1E20614908602CE05C48C06B47F2FB
:104480000441884209DD5948C06B47F2887188426F
:1044900003DA1420594908601CE05448C06BB0F599
:1044A000E14F09DD5148C06B47F20441884203DA0D
:1044B0000A20524908600DE04C48C06B46F6FC41AA
:1044C000884207DD4948C06BB0F5E14F02DA0520AC
:1044D0004A49086049480068444908640846B0F8F9
:1044E0004000000A424981F82200404890F840000C
:1044F00081F82300084690F822003E4908743C48A1
:1045000090F8230048743A4890F822003A4908711C
:10451000374890F823004871704710B501210846CC
:1045200000F0FFFF10BD10B50221012000F0F9FFDF
:1045300010BD10B50421012000F0F3FF10BD10B52F
:104540000821012000F0EDFF10BD10B51021012061
:1045500000F0E7FF10BD10B50121022000F0E1FFDF
:1045600010BD10B50221084600F0DBFF10BD10B5EC
:104570000421022000F0D5FF10BD10B50821022053
:1045800000F0CFFF10BD10B51021022000F0C9FFD0
:1045900010BD10B50121032000F0C3FF10BD10B500
:1045A0000221084600F0BDFF10BD10B50421022015
:1045B00000F0B7FF10BD10B50821022000F0B1FFD8
:1045C00010BD10B51021022000F0ABFF10BD10B5DA
:1045D0000021012000F0A5FF0021022000F0A1FF32
:1045E0000021032000F09DFF10BD0000EC09002019
:1045F0007C020020A20400202E050020400500209F
:1046000010B5044614B9FFF788FF44E0012C02D12D
:10461000FFF789FF3FE0022C02D1FFF78AFF3AE063
:10462000032C02D1FFF78BFF35E0042C02D1FFF7FA
:104630008CFF30E0052C02D1FFF78DFF2BE0062C1C
:1046400002D1FFF78EFF26E0072C02D1FFF78FFF84
:1046500021E0082C02D1FFF790FF1CE0092C02D1C9
:10466000FFF791FF17E00A2C02D1FFF792FF12E04B
:104670000B2C02D1FFF793FF0DE00C2C02D1FFF7BA
:1046800094FF08E00D2C02D1FFF795FF03E00E2CFC
:1046900001D1FFF796FF10BD0021FC4A1160FC4AD2
:1046A0001160FC490968FC4A1160FC4A1160002055
:1046B00022E0F84951F82010F84A1268914206DDCC
:1046C000F44951F82010F54A1160F1490860F149A8
:1046D00051F82010F04A126891420BDAED4951F876
:1046E0002010002906DDEB4951F82010EA4A11603C
:1046F000E6490860411CC8B21028DADB704710B5E3
:104700000446FFF7C9FFE5480068E3490968401A15
:10471000A04204DDDE490878FFF772FF01E0FFF7F1
:1047200056FF10BD10B5002404E03220FEF781FED4
:10473000601CC4B20B2CF8DB10BD10B5192104208D
:1047400000F0EFFE1420FEF774FE1A21042000F0A2
:10475000E8FE10BD10B501222021D148FDF73DF93A
:104760003220FEF766FE00222021CD48FDF735F904
:1047700010BD2DE9F843322000F063FE8DF80100F2
:10478000332000F05EFE8DF800009DF801409DF89A
:10479000000040EA0424B4F5FA4F2FD8204601F077
:1047A00040FE0746BF4AC04B01F051FD054601F0EF
:1047B0008AFE8146484601F041FEB64948640846F3
:1047C000B0F84400000AB94981F82400B14890F8D3
:1047D000440081F82500084690F82400B449887404
:1047E000B24890F82500C874B04890F82400B14948
:1047F0008871AE4890F82500C87130E04FF6FF711F
:10480000081B01F00EFE0546A64AA74B01F01FFD4E
:10481000074601F058FE8146484601F00FFE9D49CB
:1048200048640846B0F84400000AA04981F8240012
:10483000984890F8440081F82500084690F8240034
:104840009B498874994890F82500C874974890F857
:10485000240098498871954890F82500C871BDE8F2
:10486000F8832DE9F04F95B000BF9348149093481A
:10487000139093481290934811902C2000F0E1FD82
:104880008DF841002D2000F0DCFD8DF840009DF8F2
:1048900040009DF8411040EA012A4FF4BF700AFB26
:1048A00000F04FF47A7190FBF1F042F2107148433E
:1048B0004FF4BF710AFB01F14FF47A7291FBF2F1F0
:1048C00040F6E442511A90FBF1FA119801F0E8FD2C
:1048D000CDE90E01129801F0E3FDCDE90401504647
:1048E00001F096FD0190149901F0CCFB834601F094
:1048F000D7FDCDE9020102F08FFC0646DDE9042375
:1049000001F017FDCDE908014FF07E50139901F039
:10491000B9FB064601F0C4FDCDE90601DDE9082337
:1049200001F0EEFB02460B46CDE90A010020664984
:1049300001F0FFFCCDE90C01DDE90E2301F081FC63
:1049400004460022614B01F0DBFB804601F0BBFD19
:104950005F4908600846006801F070FD4D498864B1
:1049600015B0BDE8F08F2DE9F04F95B000BF52486B
:1049700014905248139052481290524811902C2093
:1049800000F05FFD8DF841002D2000F05AFD8DF8FC
:1049900040009DF840009DF8411040EA012A4FF484
:1049A000BF700AFB00F04FF47A7190FBF1F042F215
:1049B000107148434FF4BF710AFB01F14FF47A7252
:1049C00091FBF2F140F6E442511A90FBF1FA119892
:1049D00001F066FDCDE90E01129801F061FDCDE90F
:1049E0000401504601F014FD0190149901F04AFBB6
:1049F000834601F055FDCDE9020102F00DFC0646AB
:104A0000DDE9042301F095FCCDE908014FF07E506B
:104A1000139901F037FB064601F042FDCDE906018E
:104A2000DDE9082301F06CFB02460B46CDE90A01E3
:104A30000020254901F07DFCCDE90C01DDE90E23C4
:104A400001F0FFFB04460022204B01F059FB804699
:104A500001F039FD1F4908600846006801F0EEFCCE
:104A60000C498864084690F84800104981F82600EF
:104A7000084690F82600184988700C4890F82600DF
:104A80001649887015B0BDE8F08F00006805002059
:104A900064050020EC090020600500205C05002072
:104AA000000C0140E17A14AE47E100407C02002096
:104AB000A20400202E05002000401C46331395431D
:104AC00000405345339388430000F03F0000E03F2F
:104AD0006C05002070050020D4040020360500205D
:104AE00010B5052000F0ADFCFC49087008460078C0
:104AF00000F00200FA490870F848007800F0010060
:104B0000F8490870F6480078F74981F82700F54819
:104B1000007881F82800084690F82700F349C8700B
:104B2000F14890F82800087110BD10B5FFF7D8FFC4
:104B3000EB48007820B14321052000F0F2FC03E0AF
:104B40004121052000F0EDFC10BD10B5FFF7C8FFB6
:104B5000E348007820B14221052000F0E2FC03E0A8
:104B60004021052000F0DDFC10BD10B5FFF7B8FFB7
:104B7000DC48007820B14321052000F0D2FC03E09E
:104B80004221052000F0CDFC10BD10B5FFF7A8FFB5
:104B9000D448007820B14121052000F0C2FC03E098
:104BA0004021052000F0BDFC10BD10B543210520BB
:104BB00000F0B7FC10BD10B54021052000F0B1FC9D
:104BC00010BD70B590B0342103A801F0F8F90024AD
:104BD00008E0C548015DC648FEF7D8F90220FEF797
:104BE00028FC641C322CF4DB00221421C14800F0A4
:104BF00055FF6420FEF71DFC00221421BE4800F082
:104C00004DFF6420FEF715FC00221421BB4800F084
:104C100045FF01220821BA4801F072F90220FEF78F
:104C200008FC02220821B74801F06AF90220FEF7C9
:104C300000FC03220821B44801F062F90220FEF7CB
:104C4000F8FB04220821B14801F05AF90220FEF7CE
:104C5000F0FB05220821AE4801F052F90220FEF7D0
:104C6000E8FB06220821AB4801F04AF90220FEF7D2
:104C7000E0FB072208219D4801F042F90220FEF7DF
:104C8000D8FBA5A0FEF70DFE6420FEF7D2FBA2A084
:104C9000FEF707FE6420FEF7CCFBA2A0FEF701FEA4
:104CA0006420FEF7C6FBA2A00090A248A2A2A5A184
:104CB000036803A801F0E4FD03A8FEF7F2FD6420F9
:104CC000FEF7B7FB9AA000909A48A5A2A7A1436857
:104CD00003A801F0D5FD03A8FEF7E3FD6420FEF76D
:104CE000A8FB93A000909348A7A2AAA1036903A8D8
:104CF00001F0C6FD03A8FEF7D4FD6420FEF799FB82
:104D00008BA000908B48AAA2ACA1436903A801F034
:104D1000B7FD03A8FEF7C5FD6420FEF78AFB84A05B
:104D200000908448ACA2AFA1836903A801F0A8FD5C
:104D300003A8FEF7B6FD6420FEF77BFB7CA0009085
:104D40007C48AFA2B1A1436A03A801F099FD03A872
:104D5000FEF7A7FD4FF47A70FEF76BFB6EA0FEF72F
:104D6000A0FD6420FEF765FB71A000907148AEA223
:104D700074A1836A03A801F083FD03A8FEF791FDE7
:104D80006420FEF756FB6AA000906A48A9A277A1AA
:104D9000C36A03A801F074FD03A8FEF782FD642036
:104DA000FEF747FB62A000906248A5A279A1836B41
:104DB00003A801F065FD03A8FEF773FD6420FEF76C
:104DC00038FB5BA000905B48A0A27CA1C36B03A84A
:104DD00001F056FD03A8FEF764FD6420FEF729FBF1
:104DE0009CA0009053489CA27EA1036C03A801F0F4
:104DF00047FD03A8FEF755FD6420FEF71AFB99480E
:104E0000006801F04DFB054697A098A2CDE900513E
:104E1000029099A103A801F033FD03A8FEF741FD1C
:104E20004FF47A70FEF705FB3BA0FEF73AFD6420D5
:104E3000FEF7FFFA98A000903E4898A29AA1436C12
:104E400003A801F01DFD03A8FEF72BFD6420FEF76B
:104E5000F0FA9CA29FA103A801F012FD03A8FEF79F
:104E600020FD4FF47A70FEF7E4FA10B070BD10B573
:104E7000FEF72DFEFEF75CFEFEF706FFFEF73FFF96
:104E8000FEF778FFFFF742F8FFF77BF8FFF7B4F87B
:104E9000FFF763F9FFF7AEF9FFF7E5F9FFF763FDF9
:104EA000FFF767FCFFF71CFEFFF78BFE10BD2DE937
:104EB0007046002000F0C5FA044604F0080504F02E
:104EC000040604F0020904F0010A082D01D0082F9D
:104ED00003D10120854908600AE10DE17C0500202D
:104EE0007D0500207E0500207C0200203605002084
:104EF0000038014070040020A2040020D4040020E7
:104F0000060500200E050020160500201E050020C5
:104F1000260500202E050020434C52283631293B1F
:104F20000D0A00004449522831293B0D0A000000B7
:104F30006D560000EC090020B5DAD2BBBDDAB5E74A
:104F4000D1B93A00444356313628302C302C27252D
:104F50007325642573272C33293B0D0A00000000BC
:104F6000B5DAB6FEBDDAB5E7D1B93A0044435631F9
:104F70003628302C32302C27257325642573272CB6
:104F800033293B0D0A000000B5DAC8FDBDDAB5E7EC
:104F9000D1B93A00444356313628302C34302C27CE
:104FA000257325642573272C33293B0D0A00000047
:104FB000B5DACBC4BDDAB5E7D1B93A0044435631CE
:104FC0003628302C36302C27257325642573272C62
:104FD00033293B0D0A000000B5DACEE5BDDAB5E7AE
:104FE000D1B93A00444356313628302C38302C277A
:104FF000257325642573272C33293B0D0A000000F7
:10500000B5DAC1F9BDDAB5E7D1B93A004443563152
:105010003628302C3130302C272573256425732712
:105020002C33293B0D0A0000B5DAC6DFBDDAB5E73F
:10503000D1B93A00B5DAB0CBBDDAB5E7D1B93A00AB
:10504000B5DABEC5BDDAB5E7D1B93A00D7DCB5E708
:10505000D1B93A0025000000B5E7B3D8534F43CE8D
:10506000AA3A000070050020A1E60000B5E7B3D819
:10507000CEC2B6C8CEAA3A00444356313628302CA8
:105080003130302C272573252E32662573272C339B
:10509000293B0D0A000000006D410000B5B1C7B00A
:1050A000B5E7C1F7CEAA3A00444356313628302C32
:1050B00030302C27257325642573272C33293B0D8D
:1050C0000A00000048574C4C4F20574F524C442088
:1050D000A3A10000444356313628302C32302C270F
:1050E0002573272C33293B0D0A000000840500207E
:1050F00029A001F0B5FB02E000202A490860042E37
:1051000002D0B8F1040F06D101202749086027A07A
:1051100001F0A6FB02E0002023490860B9F1020F6C
:1051200006D101202449086024A001F099FB02E087
:10513000002021490860BAF1010F06D1012022495F
:10514000086022A001F08CFB02E000201E490860EC
:10515000BDE8708670B503460C46002016E080213D
:1051600011E000F080051DB14506280E504001E019
:105170004506280E1D780D4005B150400D4601EB47
:10518000D576C6F347010029EBD15B1C2500A4F1BD
:105190000106F4B2E3D170BD7061636B2055560A0D
:1051A0000000000084050020880500207061636B0A
:1051B000204F560A000000008C0500207061636BD0
:1051C000205343440A000000900500207061636B87
:1051D000204F43440A00000008B501210820FCF7D5
:1051E00027FE4FF48070ADF8000003208DF8020018
:1051F00014208DF803006946F848FCF73DFB4FF496
:105200000070ADF8000003208DF8020014208DF826
:1052100003006946F148FCF72FFB08BD322001E08E
:10522000411EC8B20028FBD1704710B54FF4007181
:10523000EA48FCF7CEFB4FF48071E848FCF7C9FB65
:10524000FFF7ECFF4FF40071E448FCF7A8FB08B946
:10525000002010BD4FF40071E048FCF7BCFBFFF7E5
:10526000DDFF4FF40071DD48FCF799FB08B1002029
:10527000EFE74FF40071D948FCF7ADFBFFF7CEFF25
:105280000120E6E710B54FF48071D448FCF7A3FB8A
:10529000FFF7C4FF4FF40071D048FCF79CFBFFF709
:1052A000BDFF4FF48071CD48FCF793FBFFF7B6FFCD
:1052B0004FF40071C948FCF78CFBFFF7AFFF10BD3E
:1052C00010B54FF48071C548FCF785FBFFF7A6FFCA
:1052D0004FF40071C148FCF77EFBFFF79FFF4FF4CE
:1052E0008071BE48FCF775FBFFF798FF4FF48071A3
:1052F000BA48FCF770FBFFF791FF10BD10B54FF4F3
:105300008071B648FCF767FBFFF788FF4FF4007128
:10531000B248FCF75EFBFFF781FF4FF48071AF48A6
:10532000FCF757FBFFF77AFF4FF48071AB48FCF7AF
:1053300052FBFFF773FF10BD10B54FF48071A74803
:10534000FCF749FBFFF76AFF4FF40071A348FCF735
:1053500040FBFFF763FF4FF48071A048FCF739FB77
:10536000FFF75CFF4FF400719C48FCF718FB30B16D
:105370004FF480719948FCF72EFB002010BD4FF4CC
:1053800080719648FCF727FB0120F7E770B50446CB
:1053900008251FE04FF480719048FCF71CFBFFF7D5
:1053A0003DFF04F0800028B14FF400718B48FCF7FA
:1053B00010FB04E04FF400718848FCF70CFB60061A
:1053C000040EFFF72BFF4FF480718448FCF701FBBC
:1053D000FFF724FF2800A5F10101CDB2DAD14FF487
:1053E00080717E48FCF7F7FA70BD70B5082500247F
:1053F000A9017A48FCF7EDFA17E06006040E4FF4B5
:1054000080717648FCF7E7FAFFF708FF4FF48071E8
:105410007248FCF7DEFAFFF701FF4FF400716F48A6
:10542000FCF7BDFA08B144F001042800A5F1010120
:10543000CDB2E2D14FF480716848FCF7CCFA204637
:1054400070BD70B504460025FFF7EFFE1020FFF792
:105450009DFFFFF771FFE0B2FFF798FFFFF76CFFCA
:10546000FFF7E3FE1120FFF791FFFFF765FFFFF75E
:10547000BCFF0546FFF706FF284670BD2DE9F04149
:1054800007460C460026002509E036023919491B5B
:10549000491E88B2FFF7D5FF0644681CC5B2A54275
:1054A000F3DB3046BDE8F08170B504460E46FFF7E9
:1054B000BCFE2546E11704EB11610912102202EB34
:1054C0004101C8B2FFF762FFFFF736FFE11704EBB7
:1054D00011610912A4EB0121C8B2FFF757FFFFF7D2
:1054E0002BFF3046FFF752FFFFF726FFFFF7CAFEFC
:1054F0000A20FDF79EFF70BD2DE9F04105460E46DE
:105500001746002409E0E20046FA02F2D1B22A1955
:1055100090B2FFF7C9FF601CC4B2BC42F3DBBDE828
:10552000F08138B504460D4610208DF80000E0B239
:105530008DF80100E8B28DF80200072203216846C9
:10554000FFF708FEC0B28DF80300FFF76EFE9DF86E
:105550000000FFF71BFFFFF7EFFE9DF80100FFF7CC
:1055600015FFFFF7E9FE9DF80200FFF70FFFFFF7B9
:10557000E3FE9DF80300FFF709FFFFF7DDFEFFF7ED
:1055800081FE0A20FDF755FF38BD70B506460C4672
:105590001546FFF74AFE08B9002070BD04F4E0612B
:1055A00045EAE1114FF6FE7201EA0200FFF7EEFE56
:1055B000FFF7C2FE18B9FFF765FE0020EDE7E0B285
:1055C000FFF7E4FEFFF7B8FE3046FFF7DFFEFFF718
:1055D000B3FEFFF757FE0120DFE70000000C01409B
:1055E0002DE9F04106460C4615461F46FFF71DFE05
:1055F00010B90020BDE8F08105F4E06147EAE1114F
:105600004FF6FE7201EA0200FFF7C0FEFFF794FEBC
:1056100018B9FFF737FE0020ECE7E8B2FFF7B6FE57
:10562000FFF78AFEFFF701FE05F4E06147EAE111AA
:1056300041F00100FFF7AAFEFFF77EFE0CE0FFF746
:10564000D4FE3070012C02D1FFF758FE01E0FFF7C5
:1056500037FE761C601E84B2002CF0D1FFF712FEDC
:105660000120C7E708B501210C20FCF7E1FB202051
:10567000ADF8000010208DF8030003208DF8020023
:1056800069460248FCF7F8F808BD0000000C01402C
:1056900008B54FF4A060FBF74BF81C208DF8000014
:1056A00001208DF8010000208DF8020001208DF806
:1056B00003006846FBF741F84FF4A060FBF738F8A9
:1056C0001D208DF8000002208DF8010000208DF8CB
:1056D000020001208DF803006846FBF72EF808BD94
:1056E0003EB505460C4601210846FCF7AEFB4FF0DF
:1056F0008040FCF701FC4FF08040FDF761F8ADF809
:105700000450ADF800400020ADF80600ADF80200EE
:1057100069464FF08040FCF7C3FC01218807FDF784
:10572000E1FA00214FF08040FDF716F90122114601
:105730009007FDF72CF801218807FDF70DF8FFF71A
:10574000A7FF3EBD3EB505460C4601210220FCF7F1
:105750007CFB1248FCF7D0FB1048FDF731F8ADF8A0
:105760000450ADF800400020ADF80600ADF802008E
:1057700069460A48FCF794FC01210848FDF7B2FA93
:1057800000210648FDF7E8F8012211460348FCF71E
:10579000FEFF01210148FCF7DFFF3EBD0004004091
:1057A00070B505460C4645F25550FCF7B3F928464E
:1057B000FCF7B3F92046FCF7B3F9FCF7B4F9FCF7B2
:1057C000B7F970BD10B5FCF7AEF910BD1FB50020DC
:1057D000ADF80400ADF80600ADF808000C20ADF8F7
:1057E0000A000020ADF80C000121FE48FDF761FB26
:1057F00001218803FCF71CFB4FF41650009069460A
:10580000F848FDF7CAFA012240F22551F548FDF7A4
:105810005CFB0121F348FDF74CFB00BFF148008819
:1058200000F080000028F9D00D20EE49091D088005
:1058300000BFEC48008800F080000028F9D00A2062
:10584000E849091D08801FBD70B503460C4603B129
:105850000CB9002070BD012A50D100214BE0585CEA
:10586000632810D900BFDF48008800F080000028BE
:10587000F9D0585C6425B0FBF5F03030C0F3080077
:10588000D84D2D1D2880585C092815D900BFD54852
:10589000008800F080000028F9D0585C6425B0FB37
:1058A000F5F605FB16000A25B0FBF5F03030C0F325
:1058B0000800CC4D2D1D288000BFCA48008800F08C
:1058C00080000028F9D0585C0A25B0FBF5F605FBEE
:1058D00016003030C0F30800C24D2D1D288000BFD7
:1058E000C048008800F080000028F9D02020BD4D7D
:1058F0002D1D2880491CA142B1D35DE0022A4BD165
:10590000002146E000BFB748008800F08000002872
:10591000F9D0585C0925B5EB201F0AD2585C0A253E
:10592000C5EB20104130C0F30800AE4D2D1D28807E
:1059300006E0585C302505EB2010AA4D2D1D28806F
:1059400000BFA848008800F080000028F9D0585C0B
:1059500000F00F00092809D9585C00F00F0037301B
:10596000C0F308009F4D2D1D288006E0585C00F014
:105970000F0030309B4D2D1D288000BF99480088B6
:1059800000F080000028F9D02020964D2D1D2880A1
:10599000491CA142B6D30FE000210BE000BF9148A3
:1059A000008800F080000028F9D0585C8D4D2D1D36
:1059B0002880491CA142F1D301204BE78A49087095
:1059C000704789480078704700B587B00121874843
:1059D000FCF72EFA0420ADF8180003208DF81A0009
:1059E00018208DF81B0006A98148FBF745FF082009
:1059F000ADF8180004208DF81B0006A97C48FBF7C1
:105A00003BFF26208DF8040002208DF805000320BE
:105A10008DF8060001208DF8070001A8FAF78DFE29
:105A20000020ADF80C00ADF80E00ADF810000C2011
:105A3000ADF812000020ADF8140001216D48FDF70B
:105A400038FA01214804FCF700FA4FF4165002908E
:105A500002A96848FDF7A1F9012240F225516548E5
:105A6000FDF733FA01216348FDF723FA00BF6148CF
:105A7000008800F080000028F9D00D205D49091D44
:105A8000088000BF5B48008800F080000028F9D043
:105A90000A205849091D088007B000BD70B50346AB
:105AA0000C4603B10CB9002070BD012A50D1002171
:105AB0004BE0585C632810D900BF4E48008800F0C6
:105AC00080000028F9D0585C6425B0FBF5F0303038
:105AD000C0F30800474D2D1D2880585C092815D9B2
